:020000040800F2
:1000000000A00020B9110008011200080112000828
:10001000011200080112000801120008000000008F
:1000200000000000000000000000000001120008B5
:10003000011200080000000001120008011200086F
:1000400000000000000000000000000000000000B0
:1000500000000000000000000000000000000000A0
:100060000000000000000000000000000000000090
:100070000000000000000000000000000000000080
:100080000000000000000000000000000000000070
:100090000000000000000000000000000000000060
:1000A0000000000000000000000000000000000050
:1000B0000000000000000000000000000000000040
:1000C0000000000000000000000000000000000030
:1000D0000000000000000000000000000000000020
:1000E0000000000000000000000000000000000010
:1000F0000000000000000000000000000000000000
:1001000000000000000000000000000000000000EF
:1001100000000000000000000000000000000000DF
:1001200000000000000000000000000000000000CF
:1001300000000000000000000000000000000000BF
:1001400000000000000000000000000000000000AF
:10015000000000000000000000000000000000009F
:10016000000000000000000000000000000000008F
:10017000000000000000000000000000000000007F
:08018000000000000000000077
:1001880010B5054C237833B9044B13B10448AFF3C9
:1001980000800123237010BDFC0100200000000036
:1001A8004C12000808B5034B1BB103490348AFF3D1
:1001B800008008BD00000000000200204C1200086A
:1001C80010B5044600F00CFA00F011FA224610218E
:1001D800722000F093F8002010BD38B511F0020429
:1001E800154602D00F2A11D91024CA0709D5103490
:1001F800E4B2A5420AD3A4F1100210219818FFF71F
:10020800DFFF601B18BF0120800038BD0420FCE719
:1002180008B500F045F900F081F900F0BDF900F0EB
:100228005BF8044A1021012000F03CF800F0C0F807
:10023800FCE700BFE301000810B5024601440020B6
:100248008A4200D110BD12F8013B0824584043B23D
:10025800002BBABF5B0083F04D034300013CD8B2CA
:10026800F5D1EDE730B50022044601238B4201D3D6
:10027800002030BD14F8015F15B99D1A85541A463F
:100288000133DBB2F2E730B5047800250246057089
:100298002046884200D204B930BD145C15540319B5
:1002A800D8B2F6E738B50B4D2B681F2B04DD61205B
:1002B80000F0BCF9012038BDF82901D96220F7E720
:1002C8000C2404FB035401332071C4E902122B608F
:1002D8000020F0E70000002008B5064A002176203B
:1002E800FFF7E0FFBDE80840034A00217720FFF749
:1002F800D9BF00BF610300087D030008F0B50D46B3
:10030800C1B012B300238DF802106C468DF800308E
:100318008DF801000DF102019D4218DCA91CC9B23B
:100328000DF10100FFF788FF63192F1D691DD870B3
:100338000026C9B22046E655FFF794FF14F8010BD2
:10034800013600F073F9B742F8DA41B0F0BDD05C7D
:1003580001F8010F0133DFE707B503230DF10702A9
:10036800012172208DF80730FFF7C8FF002003B085
:100378005DF804FB30B50D48017889B000220C24E3
:10038800D3B28B4202F1010206DB6A467220FFF704
:10039800B5FF002009B030BD03F1200504FB0303BD
:1003A8006D441B7905F8203CEAE700BF00000020F7
:1003B8002DE9F047C0B0002401AD8DF80340A846F0
:1003C80000F01CF905F8010B58B905208DF8030059
:1003D8000DF1030201216520FFF790FF40B0BDE851
:1003E800F0870134042CEBD121464046FFF74BFF40
:1003F8002A4D9DF805102A68064600230C20DFB216
:10040800974202DB08D10120E0E700FB075C0133DB
:100418009CF804C08C45F2D19DF807300533B342EF
:1004280008DA0420D2E700F0E9F808F80400002808
:10043800CBD001349DF807300433A342F3DA00F03F
:10044800DDF804F580730DEB030A0AF8FC0C0028AC
:10045800E7D1C6F1010353FA84F1C9B25FFA84F90E
:1004680008EB0600FFF70FFFA9F10201C9B20DF171
:100478000500FFF7E1FE1AF8FD3C83420CD10C237E
:1004880003FB07559DF80720EC689DF806109DF8BA
:10049800050002ABA04799E7022097E7000000207B
:1004A80070B596B0002403264FF4A0230CA80125AC
:1004B800CDE90C631094149400F0D0F80F23214672
:1004C80002A8CDE90235CDE90444069400F00CFBFE
:1004D800104B11485A6942F400225A615B6903F4CF
:1004E80000230193019B07A94FF4C043CDE90735C9
:1004F800CDE9094600F098FB2A4607484FF4005119
:1005080000F050FC04482A464FF4804100F04AFCB1
:1005180016B070BD001002400008004810B54FF436
:10052800C06288B00223CDE9032301210323CDE96A
:100538000513164C07230793636943F4003363617B
:10054800636903F40033019303A94FF09040019BC2
:1005580000F06AFB0E4A0F4B13604FF46130002322
:10056800C2E90103C2E9033393610C235361A36910
:1005780043F48043A361A36903F4804302931046C4
:10058800029B00F029FD08B010BD00BF001002401A
:10059800840100200038014030B5104B5A6942F4FC
:1005A800003287B05A615B6903F400330093009B03
:1005B8004FF480540123CDE901430025032301A909
:1005C8004FF09040CDE9035300F02EFB2A46214618
:1005D8004FF0904000F0E6FB07B030BD001002403D
:1005E80001224FF480514FF0904000F0DBBB002215
:1005F8004FF480514FF0904000F0D4BB13B5094C34
:10060800094841F2883301220DF1070100F064FD29
:1006180018B99DF8070002B010BD236A43F008031B
:100628002362EDE7003801408401002007B541F25C
:1006380088338DF8070001220DF10701024800F008
:10064800F5FC03B05DF804FB84010020024B186838
:10065800421C1A60704700BFF401002003682DE9AE
:10066800F743D907044610D423689A077ED4236831
:100678001E0700F1E78023685D0700F12A81E2691F
:10068800002A40F0AD8100201FE0AE494B6803F01E
:100698000C03042B07D04B6803F00C03082B17D16D
:1006A8004B68DB0314D54FF4003393FAA3F20968BF
:1006B80093FAA3F30122B3FA83F302FA03F30B428A
:1006C800D2D06368002BCFD1012003B0BDE8F083FE
:1006D8006268B2F5803F22D10B6843F480330B6027
:1006E800CB6AA06823F00F030343CB623AB3FFF74A
:1006F800ADFF4FF400360546012796FAA6F30A68BF
:1007080096FAA6F3B3FA83F307FA03F31342ABD1CD
:10071800FFF79CFF401B6428EFD90320D5E70B683F
:1007280032B923F480330B600B6823F48023D6E7B7
:10073800B2F5A02FF5D143F480230B60CCE7FFF787
:1007480085FF4FF400360546012796FAA6F30A6896
:1007580096FAA6F3B3FA83F307FA03F3134283D0A6
:10076800FFF774FF401B6428EFD9D6E775494B683B
:1007780013F00C0F07D04B6803F00C03082B1FD1A4
:100788004B68DF031CD4022393FAA3F2086893FA98
:10079800A3F30122B3FA83F302FA03F3034202D06C
:1007A8002369934290D10868F82292FAA2F2636909
:1007B800B2FA82F2934020F0F80213430B6056E736
:1007C80022690125F2B195FAA5F3B3FA83F303F18F
:1007D800845303F584139B0002271D60FFF736FF3F
:1007E800064697FAA7F30A6897FAA7F3B3FA83F3CA
:1007F80005FA03F31342D6D1FFF728FF801B02281E
:10080800EFD98AE795FAA5F3B3FA83F303F1845392
:1008180003F584139B0002271A60FFF717FF0646AB
:1008280097FAA7F30A6897FAA7F3B3FA83F305FAD6
:1008380003F313423FF41BAFFFF708FF801B0228A6
:10084800EED96AE7A0693F4D3F4A012100B391FA0A
:10085800A1F3B3FA83F313449B0002261960FFF750
:10086800F5FE074696FAA6F396FAA6F396FAA6F3C5
:100878006A6A96FAA6F3B3FA83F301FA03F313420A
:100888007FF4F9AEFFF7E2FEC01B0228EAD944E77D
:1008980091FAA1F3B3FA83F313449B00022618607C
:1008A800FFF7D4FE074696FAA6F396FAA6F396FA49
:1008B800A6F36A6A96FAA6F3B3FA83F301FA03F386
:1008C80013423FF4D8AEFFF7C1FEC01B0228EAD995
:1008D80023E71C49CB69D80031D4CB6943F0805356
:1008E800CB61CB6903F080530193019B0125174E1F
:1008F8003368DA052CD5E368012B39D10B6A43F04C
:1009080001030B62FFF7A2FE022607464FF001081B
:1009180041F2883996FAA6F396FAA6F30A6A96FA85
:10092800A6F3B3FA83F308FA03F3134252D0002D67
:100938003FF4A5AECB6923F08053CB619FE6002539
:10094800D5E700BF001002402081901000700040E1
:10095800336843F480733360FFF778FE07463368E3
:10096800DB05C8D4FFF772FEC01B6428F7D9D4E6AC
:1009780013BB0B6A23F001030B620B6A23F0040319
:100988000B62FFF763FE022607464FF0010841F2AB
:10099800883996FAA6F396FAA6F30A6A96FAA6F39F
:1009A800B3FA83F308FA03F31342C0D0FFF74EFEFD
:1009B800C01B4845EDD9B0E6052B0B6A03D143F0BF
:1009C80004030B629AE723F001030B620B6A23F01E
:1009D800040396E7FFF73AFEC01B48459AD99CE600
:1009E8003F494B6803F00C03082B3FF46DAE022A15
:1009F8004FF0807350D193FAA3F3B3FA83F303F162
:100A0800845303F584139B0000221A60FFF71EFE2F
:100A1800DFF8D08006464FF00077012597FAA7F354
:100A28000A6897FAA7F3B3FA83F305FA03F31342B4
:100A38002CD1D4E908034A68034322F474121343FF
:100A48004B604FF0807393FAA3F3B3FA83F303F187
:100A5800845303F584139B00224F1D60FFF7F6FDB6
:100A68004FF000750446012695FAA5F30A6895FA31
:100A7800A5F3B3FA83F306FA03F313427FF403AE44
:100A8800FFF7E4FD001BB842EED946E6FFF7DEFDAE
:100A9800831B4345C2D940E693FAA3F3B3FA83F321
:100AA80003F1845303F584139B0000221A60FFF7B7
:100AB800CDFD0C4F04464FF00075012695FAA5F3BD
:100AC8000A6895FAA5F3B3FA83F306FA03F3134217
:100AD8003FF4D9ADFFF7BAFD001BB842EED91CE6CA
:100AE80000100240400D03004D4AF8B5136803F0AA
:100AF80007038B42044611D3226895071AD4D007FE
:100B080020D4474A136803F007038B426CD8226845
:100B1800510774D413077AD400200AE0136823F02D
:100B280007030B431360136803F007038B42E3D0FA
:100B38000120F8BD3B48A568436823F0F0032B4328
:100B48004360DCE76268374D012A25D14FF4003352
:100B580093FAA3F0286893FAA3F3B3FA83F302FA9B
:100B680003F30342E4D06B6823F0030313436B6081
:100B7800FFF76CFD6368012B064641F288371CD1EC
:100B88006B6803F00C03042BBBD0FFF75FFD801BE1
:100B9800B842F5D90320CCE7022A0CBF4FF0007306
:100BA800022393FAA3F02E6893FAA3F30120B3FA71
:100BB80083F300FA03F33342D4E7022B0FD16B68B7
:100BC80003F00C03082B9CD0FFF740FD801BB842B4
:100BD800F5D9DFE7FFF73AFD801BB842DAD86B6832
:100BE80013F00C0FF6D18CE7136823F007030B43BF
:100BF8001360136803F007038B4299D187E709490B
:100C0800E0684B6823F4E06303434B6082E7054ADE
:100C18002169536823F4605343EAC10353607BE7B7
:100C280000200240001002402DE9F74FDFF86881EC
:100C38005A4C00234FF00F090A6832FA03F502D123
:100C480003B0BDE8F08F012505FA03FA1AEA02029B
:100C580000F098804D6825F0100EBEF1020F11D1FA
:100C6800DF0800EB870703F0070C3E6A4FEA8C0C9D
:100C780009FA0CFB26EA0B0B0E6906FA0CF646EA93
:100C88000B063E62D0F800B04FEA430C032606FA82
:100C98000CF72BEA070BFE4305F0030707FA0CF7DE
:100CA8000EF1FF3E47EA0B07BEF1010F076010D8AF
:100CB800876806EA070ECF6807FA0CF747EA0E07B7
:100CC8008760476827EA0A0E2F099F4047EA0E0700
:100CD8004760C76837408E6806FA0CF63E43C66020
:100CE800EE004FD5D8F8186046F00106C8F818602D
:100CF800D8F8186023F0030707F1804706F00106CB
:100D080007F58037019603F0030C019EBE684FEA91
:100D18008C0C09FA0CFEB0F1904F26EA0E0E33D077
:100D28001F4EB04232D006F58066B04230D006F58C
:100D38008066B0422ED006F58066B04214BF052604
:100D4800042606FA0CF646EA0E06BE602668D74365
:100D580015F4803F0CBF3E4016432660666815F4C4
:100D6800003F0CBF3E4016436660A66815F4801F1E
:100D78000CBF3E401643A660E668AD0254BF3E4035
:100D88001643E660013357E70026DAE70126D8E77D
:100D98000226D6E70326D4E70010024000040140EB
:100DA800000400480AB18161704781627047000001
:100DB80002688368C16930B5056914682B434569C1
:100DC80024F416442B4324F00C040B4323431360F0
:100DD8005368C468056A23F44053234353609468F6
:100DE800836924F430642B4323439360444B9A4231
:100DF80013D103F558431B6B03F00303022B63D095
:100E0800032B69D0B1F5004F41684FEA510347D031
:100E180003F5F40303F590534AE03A4B9A4212D192
:100E280003F5E6331B6B03F44033B3F5003F4BD0B7
:100E3800E8D9B3F5403F4FD0B1F5004F4FF001006E
:100E48005DD1002355E0304B9A420BD103F5E433D2
:100E58001B6B03F44023B3F5002F35D0D2D9B3F57B
:100E6800402FE8E7294B9A420BD103F5E2331B6B7D
:100E780003F44013B3F5001F26D0C3D9B3F5401FC0
:100E8800D9E7234B9A42D7D103F5E0331B6B03F420
:100E98004003B3F5000F17D0B4D9B3F5400FCAE734
:100EA80003F5740303F510531FE04B0803F50043E3
:100EB800B3FBF1F39BB2D360002020E04B0803F5AD
:100EC800740303F51053F3E7B1F5004F4168ECD113
:100ED8004B0803F5803308E0B1F5004F4168EDD1C8
:100EE8004B0803F1F47303F59043B3FBF1F30020CF
:100EF8009BB223F00F01C3F342030B43D36030BD11
:100F0800003801400044004000480040004C0040C8
:100F1800005000402DE9F041DDF8188004461646DF
:100F28001F462568EB6931EA03030CBF0123002340
:100F3800B34201D0002016E0B8F1FF3FF2D0B8F17B
:100F4800000F12D12B6823F4D0732B60AB6823F009
:100F58000103AB60202384F8693084F86A300023E9
:100F680084F868300320BDE8F081FFF76FFBC01BF1
:100F78004045D6D9E6E773B504460021C166FFF7B8
:100F880065FB266833681A07054616D433685B077D
:100F98000AD56FF07E43009300222B464FF4800160
:100FA8002046FFF7B7FFA0B92023002084F8693056
:100FB80084F8680084F86A300CE06FF07E43009390
:100FC8000A4603464FF400112046FFF7A3FF002806
:100FD800DCD0032002B070BD38B5044620B390F8C9
:100FE800693003F0FF020BB980F8682025682423D4
:100FF80084F869302B6823F001032B602046FFF743
:10100800D7FE012810D06B6823F490436B60AB685F
:1010180023F02A03AB602B6843F001032B602046C2
:10102800BDE83840FFF7A7BF012038BDF7B51E4619
:1010380090F86930202B0D46044611464AD1002D00
:1010480046D0002A44D090F86830012B42D00123C2
:1010580080F868300023C366212380F86930FFF7E1
:10106800F5FAA4F850100746A4F85210B4F8522024
:1010780092B262B900963B4640212046FFF74AFFEC
:1010880098B9202384F8693084F868000EE0B4F831
:101098005220013A92B2A4F852203B460096002210
:1010A80080212046FFF736FF10B1032003B0F0BDC2
:1010B800A3682268B3F5805F07D123692BB935F897
:1010C800023BC3F308031385D0E715F8013BFAE7A1
:1010D8000120EBE70220E9E72DE9F3411E4690F8ED
:1010E8006A30202B0D46044611465CD1002D58D09D
:1010F800002A56D090F86830012B54D0012380F88C
:10110800683003684FF0FF321A620023C366222357
:1011180080F86A30FFF79AFAA368A4F85810B3F574
:10112800805F8046A4F85A1015D123698BB940F224
:10113800FF13A4F85C30B4F85C70B4F85A0080B2BD
:1011480080B9202384F86A3084F8680002B0BDE8CA
:10115800F081FF23EDE7002BEDD12369002BF8D0B8
:101168007F23E6E7B4F85A20013A92B2A4F85A204D
:1011780043460096002220212046FFF7CBFEA0B967
:10118800A2682368B2F5805F06D1226922B99B8CD8
:101198003B4025F8023BD0E79B8C3B4005F8013BE0
:1011A800CBE70120D2E70220D0E70320CEE70000FA
:1011B800002103E00B4B5B58435004310A480B4BAA
:1011C80042189A42F6D30A4A02E000231360043216
:1011D800084B9A42F9D3AFF3008000F00FF8FFF7FD
:1011E80017F8FEE76C12000800000020000000203D
:1011F8000000002018020020FEE7000070B50D4B2B
:101208000D4D5B1B9C100026A64209D100F01AF870
:101218000A4D0B4B5B1B9C100026A64205D170BDE6
:1012280055F8043B98470136EEE755F8043B9847D4
:101238000136F2E76412000864120008641200081C
:1012480068120008F8B500BFF8BC08BC9E46704795
:0C125800F8B500BFF8BC08BC9E4670470B
:04126400AD010008D0
:0412680089010008F0
:04000005080011B925
:00000001FF
