:020000040800F2
:1000000000A0002001270008492700084927000810
:100010004927000849270008492700080000000078
:100020000000000000000000000000004927000858
:100030004927000800000000492700084927000858
:1000400000000000000000000000000000000000B0
:1000500000000000000000000000000000000000A0
:100060000000000000000000000000000000000090
:100070000000000000000000000000000000000080
:100080000000000000000000000000000000000070
:100090000000000000000000000000000000000060
:1000A0000000000000000000000000000000000050
:1000B0000000000000000000000000000000000040
:1000C0000000000000000000000000000000000030
:1000D0000000000000000000000000000000000020
:1000E0000000000000000000000000000000000010
:1000F0000000000000000000000000000000000000
:1001000000000000000000000000000000000000EF
:1001100000000000000000000000000000000000DF
:1001200000000000000000000000000000000000CF
:1001300000000000000000000000000000000000BF
:1001400000000000000000000000000000000000AF
:10015000000000000000000000000000000000009F
:10016000000000000000000000000000000000008F
:10017000000000000000000000000000000000007F
:08018000000000000000000077
:1001880010B5054C237833B9044B13B10448AFF3C9
:1001980000800123237010BDFC0100200000000036
:1001A8009427000808B5034B1BB103490348AFF374
:1001B800008008BD0000000000020020942700080D
:1001C8002DE9F04387B0009303468DF807300B46BE
:1001D8008DF8063013468DF805309DF80530102B44
:1001E80001D004233DE000F0FDFB009B1E1D009B99
:1001F80003F10807009B03F10C0C009D0DF1080E9C
:1002080002AB03F1040802AB03F10809286880EA8D
:100218000102396830683968DCF8001080EA0103A7
:10022800CEF80020C8F800302868DCF800103268E2
:100238003B68484064405A402868DCF8001032683F
:10024800D9F800104140644064405140DEF8002075
:10025800D8F8003081EA020180EA030000F0CCFB04
:100268000023184607B0BDE8F083000008B500F089
:10027800F3FA00F03FFB00F08BFB00F007F9044AAB
:100288001021012000F014F900F05AF9FCE700BF32
:10029800C901000884B001900B468DF80330002393
:1002A800039300238DF80B3024E0019B5A1C019224
:1002B8001A789DF80B3053408DF80B3000230393C8
:1002C80015E09DF90B30002B08DA9DF90B305B0027
:1002D8005BB283F04D035BB2DBB203E09DF80B30F9
:1002E8005B00DBB28DF80B30039B01330393039B58
:1002F800072BE6D99DF803305A1E8DF80320002BF2
:10030800D3D19DF80B30184604B0704700B585B0BE
:10031800009303468DF807300B468DF806301346D8
:100328008DF8053003238DF80F300DF10F031A46B1
:100338000121722000F00CFA0023184605B05DF880
:1003480004FB000000B58DB0009303468DF807301C
:100358000B468DF8063013468DF8053000238DF8CE
:100368002F3014E09DF82F209DF82F1012481346C7
:100378005B0013449B0003441A7801F130036B447B
:1003880003F8242C9DF82F3001338DF82F309DF879
:100398002F200A4B1B68DBB29A42E3DB074B1B6832
:1003A800DBB203AA1946722000F0D2F900231846DE
:1003B8000DB05DF804FB00BF040000200000002021
:1003C80084B001900B468DF8033001238DF80F306F
:1003D80000238DF80E301AE09DF80F30019A13446F
:1003E8001B78002B0ED19DF80E30019A13449DF80E
:1003F8000F109DF80E208A1AD2B21A709DF80F308D
:100408008DF80E309DF80F3001338DF80F309DF8C0
:100418000F209DF803309A42DED30023184604B01B
:10042800704784B001900B468DF80330019B1B7810
:100438008DF80F30019B00221A709DF80F308DF84F
:100448000E3013E09DF80F30019A13441B788DF895
:100458000E309DF80F30019A134400221A709DF84F
:100468000F209DF80E3013448DF80F309DF80F20A3
:100478009DF803309A4203D29DF80E30002BE1D14B
:100488009DF80F30184604B07047000008B5064ABA
:100498000021762000F00CF8044A0021772000F0B3
:1004A80007F800BF08BD00BF150300084D0300088A
:1004B80000B585B00346029101928DF80F301E4BAE
:1004C8001B681F2B04DD612000F0BEFA01232EE01B
:1004D800029BF82B04D9622000F0B6FA012326E02B
:1004E800154B1A68154913465B0013449B000B44CF
:1004F8009DF80F201A70104B1A68104913465B00BC
:1005080013449B000B440433029A1A600A4B1A687E
:100518000A4913465B0013449B000B440833019AB5
:100528001A60054B1B680133034A13600023184601
:1005380005B05DF804FB00BF0000002004000020A7
:1005480010B5C4B044ABA3F2091300221A700023FB
:1005580043931BE000F05AFA0346194644ABA3F54F
:100568008472439B13440A461A7044ABA3F5847201
:10057800439B13441B78002B05D144ABA3F209130A
:1005880005221A70D6E0439B01334393439B032B08
:10059800E0DD02AB04211846FFF743FF03468DF860
:1005A800033100238DF80B3100238DF80B3113E054
:1005B8009DF80B21644913465B0013449B000B44D0
:1005C8001A7844ABA3F584735B789A420BD09DF8F4
:1005D8000B3101338DF80B319DF80B215B4B1B68F8
:1005E8009A42E5DB00E000BF9DF80B21574B1B68E2
:1005F8009A4205D144ABA3F2091301221A7099E07B
:1006080044ABA3F58473DB785A1D9DF803319A42F5
:1006180005DA44ABA3F2091304221A708AE0042312
:1006280041931BE000F0F2F90346194644ABA3F5E9
:100638008472419B13440A461A7044ABA3F5847232
:10064800419B13441B78002B05D144ABA3F209133B
:1006580005221A706EE0419B0133419344ABA3F528
:100668008473DB780433419A9A42DBDD00F0CEF9DB
:100678000346194644ABA3F58472419B13440A46CA
:100688001A7044ABA3F58472419B13441B78002B6A
:1006980005D044ABA3F2091304221A704AE09DF86E
:1006A800033102AAD018419BDAB29DF80331D31A5C
:1006B800DBB20133DBB21946FFF7B3FE02AB0133FD
:1006C800419AD2B2023AD2B211461846FFF7E2FD79
:1006D80003468DF80231419B013B44AAA2F584727E
:1006E800D35C9DF802219A4205D044ABA3F20913CA
:1006F80002221A701EE09DF80B21134913465B0075
:1007080013449B000B4408331C6844ABA3F5847363
:10071800587844ABA3F58473997844ABA3F58473F4
:10072800DA7802AB0433A04703461A4644ABA3F277
:1007380009131A700DF107031A460121652000F00C
:1007480007F800BF44B010BD0400002000000020DE
:1007580010B5C4B044ABA3F588731A6044ABA3F2D8
:10076800091302461A7044ABA3F585730A461A703A
:1007780044ABA3F588731B68002B69D044ABA3F581
:10078800847300221A7044ABA3F5847344AAA2F2BE
:10079800091212785A7044ABA3F5847344AAA2F5DF
:1007A800857212789A70002343930FE0439B44AA02
:1007B800A2F5887212681A44439B0333117844AA3D
:1007C800A2F58472D154439B0133439344ABA3F500
:1007D80085731B78439A9A42E8DB02AB013344AA3B
:1007E800A2F5857212780232D1B2439AD41C184607
:1007F800FFF750FD03461A4644ABA3F584731A5518
:10080800439B043344AAA2F584720021D154439B2C
:10081800DBB20533DAB202AB11461846FFF7D0FD5A
:10082800002342930BE044ABA3F58472429B13442C
:100838001B78184600F008F9429B0133429344ABF9
:10084800A3F585731B780433429A9A42EBDD00E0E6
:1008580000BF44B010BD000000B597B003230B9350
:100868004FF4A0230C9300230F93002313930BAB97
:10087800184600F013F90F2306930123079300236A
:1008880008930023099300230A930023159306ABCA
:100898001599184600F0D8FF144B5B69134A43F4C6
:1008A80000235361114B5B6903F400230093009B01
:1008B8004FF4C043019301230293002303930323BE
:1008C800049301AB19460A4801F032F901224FF4AA
:1008D8000051074801F0A6FA01224FF4804104486C
:1008E80001F0A0FA00BF17B05DF804FB0010024049
:1008F8000008004800B589B04FF4C0630393022391
:1009080004930123059303230693072307931D4BA1
:100918005B691C4A43F4003353611A4B5B6903F467
:1009280000330293029B03AB19464FF0904001F04D
:10093800FFF8154B154A1A60134B4FF461325A6091
:10094800114B00229A60104B0022DA600E4B0022F5
:100958001A610D4B00229A610B4B0C225A61094B0C
:100968009B69084A43F480439361064B9B6903F4EF
:1009780080430193019B044801F0E2FC00BF09B0E9
:100988005DF804FB0010024084010020003801409B
:1009980000B587B0124B5B69114A43F400335361C9
:1009A8000F4B5B6903F400330093009B4FF48053B3
:1009B800019301230293002303930323049301ABC0
:1009C80019464FF0904001F0B3F800224FF48051DF
:1009D8004FF0904001F026FA00BF07B05DF804FB25
:1009E8000010024008B501224FF480514FF09040AA
:1009F80001F018FA00BF08BD08B500224FF4805175
:100A08004FF0904001F00EFA00BF08BD00B583B06A
:100A180005E00B4B1B6A0A4A43F0080313620DF109
:100A2800070141F288330122064801F0A9FD034677
:100A3800002BEED19DF80730184603B05DF804FB93
:100A4800003801408401002000B585B003468DF8C8
:100A580007309DF807308DF80F300DF10F0141F286
:100A680088330122034801F0FCFC00BF05B05DF8A3
:100A780004FB00BF84010020034B1B685A1C024979
:100A88000A601846704700BFF40100204FF4E103E4
:100A9800184670474FF4E1031846704700B5ADF5A6
:100AA800017D80ABA3F5FE73186000237E9380ABB5
:100AB800A3F5FE731B681B6803F00103002B00F00D
:100AC8003C819C4B5B6803F00C03042B0CD0994BC6
:100AD8005B6803F00C03082B49D1964B5B6803F461
:100AE8008033B3F5803F42D14FF400337D937D9B33
:100AF80093FAA3F37C937C9BB3FA83F3DBB23F2B8B
:100B080002D88C4B1B680FE04FF400337B937B9B20
:100B180093FAA3F37A934FF400337993799B93FA7A
:100B2800A3F37893834B5B6A4FF400327792779AFA
:100B380092FAA2F27692769AB2FA82F252B242F01F
:100B4800200252B2D2B202F01F02012101FA02F2CF
:100B58001340002B00F0F08080ABA3F5FE731B68F8
:100B68005B68002B40F0E880012300F063BE80AB97
:100B7800A3F5FE731B685B68B3F5803F06D16D4B28
:100B88001B686C4A43F48033136034E080ABA3F5F0
:100B9800FE731B685B68002B0CD1664B1B68654AAB
:100BA80023F480331360634B1B68624A23F4802369
:100BB800136020E080ABA3F5FE731B685B68B3F598
:100BC800A02F0CD15B4B1B685A4A43F48023136057
:100BD800584B1B68574A43F4803313600BE0554B5E
:100BE8001B68544A23F480331360524B1B68514AE4
:100BF80023F4802313604F4BDB6A23F00F0280AB92
:100C0800A3F5FE731B689B684A491343CB6280AB0C
:100C1800A3F5FE731B685B68002B45D0FFF72CFF1C
:100C28007E9009E0FFF728FF02467E9BD31A642BCB
:100C380002D9032300F0FEBD4FF400337593759B72
:100C480093FAA3F37493749BB3FA83F3DBB23F2B49
:100C580002D8384B1B680FE04FF400337393739B33
:100C680093FAA3F372934FF400337193719B93FA41
:100C7800A3F370932F4B5B6A4FF400326F926F9A15
:100C880092FAA2F26E926E9AB2FA82F252B242F0DE
:100C9800200252B2D2B202F01F02012101FA02F27E
:100CA8001340002BBED048E0FFF7E6FE7E9009E037
:100CB800FFF7E2FE02467E9BD31A642B02D9032378
:100CC80000F0B8BD4FF400336D936D9B93FAA3F316
:100CD8006C936C9BB3FA83F3DBB23F2B02D8154BB2
:100CE8001B680FE04FF400336B936B9B93FAA3F3ED
:100CF8006A934FF400336993699B93FAA3F368935B
:100D08000C4B5B6A4FF400326792679A92FAA2F230
:100D18006692669AB2FA82F252B242F0200252B257
:100D2800D2B202F01F02012101FA02F21340002B95
:100D3800BED102E00010024000BF80ABA3F5FE73F5
:100D48001B681B6803F00203002B00F02A81A74BE5
:100D58005B6803F00C03002B0BD0A44B5B6803F01B
:100D68000C03082B5AD1A14B5B6803F48033002B8A
:100D780054D102236593659B93FAA3F36493649B10
:100D8800B3FA83F3DBB23F2B02D8984B1B680DE014
:100D980002236393639B93FAA3F362930223619301
:100DA800619B93FAA3F36093904B5B6A02225F9274
:100DB8005F9A92FAA2F25E925E9AB2FA82F252B206
:100DC80042F0200252B2D2B202F01F02012101FA0F
:100DD80002F21340002B09D080ABA3F5FE731B6809
:100DE8001B69012B02D0012300F024BD7F4B1B6837
:100DF80023F0F80280ABA3F5FE731B685969F8234A
:100E08005D935D9B93FAA3F35C935C9BB3FA83F3C6
:100E180001FA03F3754913430B60C2E080ABA3F5F5
:100E2800FE731B681B69002B69D001235B935B9BD6
:100E380093FAA3F35A935A9BB3FA83F303F18453B7
:100E480003F584139B001A4601231360FFF714FE71
:100E58007E9009E0FFF710FE02467E9BD31A022B14
:100E680002D9032300F0E6BC02235993599B93FA55
:100E7800A3F35893589BB3FA83F3DBB23F2B02D802
:100E88005A4B1B680DE002235793579B93FAA3F321
:100E9800569302235593559B93FAA3F35493534BBC
:100EA8005B6A02225392539A92FAA2F25292529A8F
:100EB800B2FA82F252B242F0200252B2D2B202F038
:100EC8001F02012101FA02F21340002BC2D0474B46
:100ED8001B6823F0F80280ABA3F5FE731B68596901
:100EE800F8235193519B93FAA3F35093509BB3FA71
:100EF80083F301FA03F33D4913430B6051E00123E7
:100F08004F934F9B93FAA3F34E934E9BB3FA83F3FD
:100F180003F1845303F584139B001A4600231360DE
:100F2800FFF7AAFD7E9009E0FFF7A6FD02467E9B2B
:100F3800D31A022B02D9032300F07CBC02234D9361
:100F48004D9B93FAA3F34C934C9BB3FA83F3DBB218
:100F58003F2B02D8254B1B680DE002234B934B9B7C
:100F680093FAA3F34A9302234993499B93FAA3F371
:100F780048931E4B5B6A02224792479A92FAA2F262
:100F88004692469AB2FA82F252B242F0200252B225
:100F9800D2B202F01F02012101FA02F21340002B23
:100FA800C2D180ABA3F5FE731B681B6803F008036E
:100FB800002B00F0E68080ABA3F5FE731B689B69ED
:100FC800002B64D001234593459B93FAA3F34493E4
:100FD800449BB3FA83F31A46054B13449B001A4605
:100FE80001231360FFF748FD7E900DE000100240DA
:100FF80020819010FFF740FD02467E9BD31A022BFA
:1010080002D9032300F016BC02234393439B93FAAF
:10101800A3F3429302234193419B93FAA3F280AB3B
:10102800A3F580731A6080ABA3F5827302221A605D
:1010380080ABA3F582731B6893FAA3F280ABA3F588
:1010480084731A609E4B5A6A80ABA3F5867302219B
:10105800196080ABA3F586731B6893FAA3F180AB84
:10106800A3F58873196080ABA3F588731B68B3FA7E
:1010780083F35BB243F060035BB2DBB203F01F03A0
:10108800012101FA03F31340002BB3D079E080ABC0
:10109800A3F58A7301221A6080ABA3F58A731B68D3
:1010A80093FAA3F280ABA3F58C731A6080ABA3F517
:1010B8008C731B68B3FA83F31A46824B13449B0064
:1010C8001A4600231360FFF7D7FC7E9008E0FFF76D
:1010D800D3FC02467E9BD31A022B01D90323A9E332
:1010E80080ABA3F58E7302221A6080ABA3F58E73D2
:1010F8001B6893FAA3F280ABA3F590731A6080ABD8
:10110800A3F5927302221A6080ABA3F592731B6851
:1011180093FAA3F280ABA3F594731A6080ABA3F59E
:10112800967302221A6080ABA3F596731B6893FA34
:10113800A3F280ABA3F598731A60614B5A6A80AB2F
:10114800A3F59A730221196080ABA3F59A731B6803
:1011580093FAA3F180ABA3F59C73196080ABA3F558
:101168009C731B68B3FA83F35BB243F060035BB212
:10117800DBB203F01F03012101FA03F31340002B34
:10118800A5D180ABA3F5FE731B681B6803F00403AD
:10119800002B00F0758100238DF8FF31484BDB6987
:1011A80003F08053002B14D1454BDB69444A43F0CC
:1011B8008053D361424BDB6903F0805280ABA3F5C7
:1011C800FA731A6080ABA3F5FA731B6801238DF8D4
:1011D800FF313D4B1B6803F48073002B18D13A4B49
:1011E8001B68394A43F480731360FFF745FC7E900F
:1011F80008E0FFF741FC02467E9BD31A642B01D915
:10120800032317E3304B1B6803F48073002BF0D0E3
:1012180080ABA3F5FE731B68DB68012B06D1284B56
:101228001B6A274A43F00103136233E080ABA3F53E
:10123800FE731B68DB68002B0CD1214B1B6A204A0C
:1012480023F0010313621E4B1B6A1D4A23F004039B
:1012580013621FE080ABA3F5FE731B68DB68052BE8
:101268000CD1174B1B6A164A43F004031362144B44
:101278001B6A134A43F0010313620BE0104B1B6A0D
:101288000F4A23F0010313620D4B1B6A0C4A23F02B
:101298000403136280ABA3F5FE731B68DB68002BA5
:1012A80075D0FFF7E9FB7E9010E0FFF7E5FB0246FB
:1012B8007E9BD31A41F28832934207D90323B9E2BD
:1012C80000100240208190100070004080ABA3F510
:1012D8009E7302221A6080ABA3F59E731B6893FA73
:1012E800A3F280ABA3F5A0731A6080ABA3F5A27339
:1012F80002221A6080ABA3F5A2731B6893FAA3F2CB
:1013080080ABA3F5A4731A6080ABA3F5A4731B6824
:10131800B3FA83F3DBB223F05F03DBB2002B02D115
:10132800874B1B6A10E080ABA3F5A67302221A60F4
:1013380080ABA3F5A6731B6893FAA3F280ABA3F561
:10134800A8731A607E4B5B6A80AAA2F5AA72022172
:10135800116080AAA2F5AA72126892FAA2F180AA74
:10136800A2F5AC72116080AAA2F5AC721268B2FA4A
:1013780082F252B242F0400252B2D2B202F01F02DE
:10138800012101FA02F21340002B8ED06EE0FFF724
:1013980073FB7E900AE0FFF76FFB02467E9BD31A31
:1013A80041F28832934201D9032343E280ABA3F58B
:1013B800AE7302221A6080ABA3F5AE731B6893FA72
:1013C800A3F280ABA3F5B0731A6080ABA3F5B27338
:1013D80002221A6080ABA3F5B2731B6893FAA3F2DA
:1013E80080ABA3F5B4731A6080ABA3F5B4731B6824
:1013F800B3FA83F3DBB223F05F03DBB2002B02D135
:101408004F4B1B6A10E080ABA3F5B67302221A603B
:1014180080ABA3F5B6731B6893FAA3F280ABA3F570
:10142800B8731A60464B5B6A80AAA2F5BA720221A9
:10143800116080AAA2F5BA72126892FAA2F180AA83
:10144800A2F5BC72116080AAA2F5BC721268B2FA49
:1014580082F252B242F0400252B2D2B202F01F02FD
:10146800012101FA02F21340002B94D19DF8FF31BB
:10147800012B05D1324BDB69314A23F08053D3610C
:1014880080ABA3F5FE731B68DB69002B00F0D181EC
:101498002B4B5B6803F00C03082B00F0C88180AB72
:1014A800A3F5FE731B68DB69022B40F0328180AB29
:1014B800A3F5BE734FF080721A6080ABA3F5BE73BC
:1014C8001B6893FAA3F280ABA3F5C0731A6080ABD4
:1014D800A3F5C0731B68B3FA83F303F1845303F5D0
:1014E80084139B001A4600231360FFF7C5FA7E9009
:1014F80009E0FFF7C1FA02467E9BD31A114A9342CC
:1015080001D9032396E180ABA3F5C2734FF00072B3
:101518001A6080ABA3F5C2731B6893FAA3F280AB81
:10152800A3F5C4731A6080ABA3F5C4731B68B3FA40
:1015380083F3DBB23F2B07D8014B1B6826E000BFC3
:1015480000100240400D030080ABA3F5C6734FF0B6
:1015580000721A6080ABA3F5C6731B6893FAA3F2F6
:1015680080ABA3F5C8731A6080ABA3F5CA734FF0BC
:1015780000721A6080ABA3F5CA731B6893FAA3F2D2
:1015880080ABA3F5CC731A60AD4B5B6A80AAA2F559
:10159800CE724FF00071116080AAA2F5CE72126867
:1015A80092FAA2F180AAA2F5D072116080AAA2F5DF
:1015B800D0721268B2FA82F252B242F0200252B2EB
:1015C800D2B202F01F02012101FA02F21340002BED
:1015D8008FD19B4B5B6823F4741280ABA3F5FE7329
:1015E8001B68596A80ABA3F5FE731B681B6A0B4323
:1015F800934913434B6080ABA3F5D2734FF08072CD
:101608001A6080ABA3F5D2731B6893FAA3F280AB80
:10161800A3F5D4731A6080ABA3F5D4731B68B3FA2F
:1016280083F303F1845303F584139B001A460123C3
:101638001360FFF721FA7E9009E0FFF71DFA0246D2
:101648007E9BD31A7F4A934201D90323F2E080ABF1
:10165800A3F5D6734FF000721A6080ABA3F5D6736A
:101668001B6893FAA3F280ABA3F5D8731A6080AB1A
:10167800A3F5D8731B68B3FA83F3DBB23F2B02D808
:101688006F4B1B6821E080ABA3F5DA734FF0007253
:101698001A6080ABA3F5DA731B6893FAA3F280ABE8
:1016A800A3F5DC731A6080ABA3F5DE734FF000720C
:1016B8001A6080ABA3F5DE731B6893FAA3F280ABC4
:1016C800A3F5E0731A605E4B5B6A80AAA2F5E2722A
:1016D8004FF00071116080AAA2F5E272126892FAC6
:1016E800A2F180AAA2F5E472116080AAA2F5E472C0
:1016F8001268B2FA82F252B242F0200252B2D2B268
:1017080002F01F02012101FA02F21340002B94D0CB
:101718008FE080ABA3F5E6734FF080721A6080AB60
:10172800A3F5E6731B6893FAA3F280ABA3F5E873FD
:101738001A6080ABA3F5E8731B68B3FA83F303F16F
:10174800845303F584139B001A4600231360FFF7A4
:1017580093F97E9009E0FFF78FF902467E9BD31A32
:10176800384A934201D9032364E080ABA3F5EA73B6
:101778004FF000721A6080ABA3F5EA731B6893FA06
:10178800A3F280ABA3F5EC731A6080ABA3F5EC73FE
:101798001B68B3FA83F3DBB23F2B02D8284B1B68D4
:1017A80021E080ABA3F5EE734FF000721A6080ABB6
:1017B800A3F5EE731B6893FAA3F280ABA3F5F0735D
:1017C8001A6080ABA3F5F2734FF000721A6080AB19
:1017D800A3F5F2731B6893FAA3F280ABA3F5F47335
:1017E8001A60174B5B6A80AAA2F5F6724FF0007177
:1017F800116080AAA2F5F672126892FAA2F180AA84
:10180800A2F5F872116080AAA2F5F8721268B2FA0D
:1018180082F252B242F0200252B2D2B202F01F0259
:10182800012101FA02F21340002B94D101E00123B7
:1018380000E0002318460DF5017D5DF804FB00BFAC
:1018480000100240400D030000B59DB001900091CA
:1018580000231B939F4B1B6803F00703009A9A42CF
:1018680010D99C4B1B6823F007029A49009B13432D
:101878000B60984B1B6803F00703009A9A4201D04B
:1018880001234BE1019B1B6803F00203002B08D0E6
:10189800914B5B6823F0F002019B9B688E491343D0
:1018A8004B60019B1B6803F00103002B00F0FA80DA
:1018B800019B5B68012B38D14FF400331A931A9BB4
:1018C80093FAA3F31993199BB3FA83F3DBB23F2B73
:1018D80002D8814B1B680FE04FF400331893189B14
:1018E80093FAA3F317934FF400331693169B93FAC6
:1018F800A3F31593784B5B6A4FF400321492149A51
:1019080092FAA2F21392139AB2FA82F252B242F007
:10191800200252B2D2B202F01F02012101FA02F2F1
:101928001340002B73D10123F8E0019B5B68022B65
:1019380038D14FF000731293129B93FAA3F31193CB
:10194800119BB3FA83F3DBB23F2B02D8624B1B68BF
:101958000FE04FF000731093109B93FAA3F30F93CB
:101968004FF000730E930E9B93FAA3F30D935A4B0B
:101978005B6A4FF000720C920C9A92FAA2F20B92E8
:101988000B9AB2FA82F252B242F0200252B2D2B2AA
:1019980002F01F02012101FA02F21340002B36D196
:1019A8000123BBE002230A930A9B93FAA3F309934A
:1019B800099BB3FA83F3DBB23F2B02D8464B1B6873
:1019C8000DE002230893089B93FAA3F307930223DD
:1019D8000693069B93FAA3F305933F4B5B6A022297
:1019E8000492049A92FAA2F20392039AB2FA82F249
:1019F80052B242F0200252B2D2B202F01F020121CA
:101A080001FA02F21340002B01D1012386E0324B88
:101A18005B6823F00302019B5B682F4913434B600B
:101A2800FFF72AF81B90019B5B68012B12D10AE093
:101A3800FFF722F802461B9BD31A41F288329342E1
:101A480001D903236AE0244B5B6803F00C03042BE1
:101A5800EED127E0019B5B68022B1DD10AE0FFF75E
:101A68000BF802461B9BD31A41F28832934201D9E4
:101A7800032353E0184B5B6803F00C03082BEED1EB
:101A880010E0FEF7F9FF02461B9BD31A41F2883299
:101A9800934201D9032341E00F4B5B6803F00C0329
:101AA800002BEED10B4B1B6803F00703009A9A42F8
:101AB80014D2084B1B6823F007020649009B134306
:101AC8000B60044B1B6803F00703009A9A4205D089
:101AD800012323E00020024000100240019B1B6804
:101AE80003F00403002B08D00E4B5B6823F4E0627C
:101AF800019BDB680B4913434B60019B1B6803F098
:101B08000803002B09D0074B5B6823F46052019B44
:101B18001B69DB00034913434B60002318461DB0C3
:101B28005DF804FB001002404FF4E10318467047CB
:101B380086B00190009100230593002303930023AE
:101B4800049354E1009B1A680121059B01FA03F3F1
:101B580013400393039B002B00F04681009B5B68B6
:101B6800022B03D0009B5B68122B23D1059BDA085C
:101B7800019B083253F822300493059B03F00703B6
:101B88009B000F2202FA03F3DB43049A13400493E9
:101B9800009B1A69059B03F007039B0002FA03F3F5
:101BA800049A13430493059BDA08019B08320499AD
:101BB80043F82210019B1B680493059B5B000322DA
:101BC80002FA03F3DB43049A13400493009B5B6817
:101BD80003F00302059B5B0002FA03F3049A134324
:101BE8000493019B049A1A60009B5B68012B0BD03D
:101BF800009B5B68022B07D0009B5B68112B03D00E
:101C0800009B5B68122B30D1019B9B680493059B5A
:101C18005B00032202FA03F3DB43049A13400493A4
:101C2800009BDA68059B5B0002FA03F3049A1343EE
:101C38000493019B049A9A60019B5B6804930122B8
:101C4800059B02FA03F3DB43049A13400493009BB9
:101C58005B681B0903F00102059B02FA03F3049A6F
:101C680013430493019B049A5A60019BDB68049315
:101C7800059B5B00032202FA03F3DB43049A13403B
:101C88000493009B9A68059B5B0002FA03F3049A8D
:101C980013430493019B049ADA60009B5B6803F08A
:101CA8008053002B00F0A080574B9B69564A43F0A5
:101CB80001039361544B9B6903F001030293029B58
:101CC800524A059B9B08023352F823300493059B24
:101CD80003F003039B000F2202FA03F3DB43049A89
:101CE80013400493019BB3F1904F19D0019B484ACC
:101CF800934213D0019B474A93420DD0019B464A19
:101D0800934207D0019B454A934201D1042308E03E
:101D1800052306E0032304E0022302E0012300E098
:101D28000023059A02F0030292009340049A134399
:101D380004933649059B9B080233049A41F82320F3
:101D4800374B1B680493039BDB43049A13400493AB
:101D5800009B5B6803F48033002B03D0049A039B39
:101D6800134304932E4A049B13602D4B5B68049322
:101D7800039BDB43049A13400493009B5B6803F4C2
:101D88000033002B03D0049A039B13430493244A83
:101D9800049B5360224B9B680493039BDB43049A88
:101DA80013400493009B5B6803F48013002B03D05B
:101DB800049A039B13430493194A049B9360184B9A
:101DC800DB680493039BDB43049A13400493009B52
:101DD8005B6803F40013002B03D0049A039B13439E
:101DE80004930F4A049BD360059B01330593009B22
:101DF8001A68059B22FA03F3002B7FF4A3AE00BFF9
:101E080000BF06B0704700BF00100240000001404C
:101E18000004004800080048000C00480010004872
:101E28000004014082B001900B46ADF80230134621
:101E38008DF801309DF80130002B04D0BDF8022048
:101E4800019B9A6103E0BDF80220019B9A6200BFE2
:101E580002B0704700B587B00190002303931023A8
:101E68008DF817300023ADF80A300023ADF8143090
:101E780000238DF81330019B9A68019B1B691A4354
:101E8800019B5B691A43019BDB6913430393019B25
:101E98001B681B6823F4164323F00C03019A12688D
:101EA80003990B431360019B1B685B6823F4405143
:101EB800019BDA68019B1B680A435A60019B9A6977
:101EC800019B1B6A13430393019B1B689B6823F4C4
:101ED8003061019B1B68039A0A439A60019B1B6847
:101EE800A64A934224D1A64B1B6B03F00303032B92
:101EF8001AD801A252F823F0111F0008211F000868
:101F0800291F0008191F000801238DF81730CEE09B
:101F180002238DF81730CAE004238DF81730C6E085
:101F280008238DF81730C2E010238DF81730BEE073
:101F3800019B1B68934A934229D1914B1B6B03F475
:101F48004033B3F5403F12D0B3F5403F1BD8B3F54B
:101F5800003F14D0B3F5003F15D8002B03D0B3F5DC
:101F6800803F08D00FE000238DF817309FE0022350
:101F78008DF817309BE004238DF8173097E008237D
:101F88008DF8173093E010238DF817308FE0019B00
:101F98001B687D4A934229D1794B1B6B03F440237C
:101FA800B3F5402F12D0B3F5402F1BD8B3F5002F4F
:101FB80014D0B3F5002F15D8002B03D0B3F5802F1C
:101FC80008D00FE000238DF8173070E002238DF859
:101FD80017306CE004238DF8173068E008238DF87B
:101FE800173064E010238DF8173060E0019B1B6800
:101FF800664A934229D1624B1B6B03F44013B3F535
:10200800401F12D0B3F5401F1BD8B3F5001F14D0E2
:10201800B3F5001F15D8002B03D0B3F5801F08D0E7
:102028000FE000238DF8173041E002238DF81730B8
:102038003DE004238DF8173039E008238DF8173078
:1020480035E010238DF8173031E0019B1B68504AAA
:10205800934229D14A4B1B6B03F44003B3F5400F5D
:1020680012D0B3F5400F1BD8B3F5000F14D0B3F559
:10207800000F15D8002B03D0B3F5800F08D00FE060
:1020880000238DF8173012E002238DF817300EE088
:1020980004238DF817300AE008238DF8173006E07E
:1020A80010238DF8173002E010238DF81730019BAC
:1020B800DB69B3F5004F40F089809DF81730082B95
:1020C80068D801A252F823F0F5200008132100086F
:1020D800312100089D2100084D2100089D2100089C
:1020E8009D2100089D2100086B210008FEF7D2FC05
:1020F80003465A00019B5B685B081A44019B5B68B6
:10210800B2FBF3F3ADF8143048E0FFF70DFD0346DA
:102118005A00019B5B685B081A44019B5B68B2FB31
:10212800F3F3ADF8143039E0019B5B685B0803F109
:10213800F47303F59043019A5268B3FBF2F3ADF8D8
:1021480014302BE0FEF7A2FC03465A00019B5B68A3
:102158005B081A44019B5B68B2FBF3F3ADF81430DB
:102168001CE0019B5B685B0803F58032019B5B68A0
:10217800B2FBF3F3ADF8143010E000BF00380140B3
:10218800001002400044004000480040004C00405D
:102198000050004001238DF8133000BFBDF8143003
:1021A80023F00F03ADF80A30BDF814305B109BB272
:1021B80003F007039AB2BDF80A301343ADF80A30AA
:1021C800019B1B68BDF80A20DA606BE09DF81730A8
:1021D800082B63D801A252F823F000BF0922000897
:1021E8002922000849220008A522000869220008BF
:1021F800A5220008A5220008A522000889220008B7
:10220800FEF748FC0246019B5B685B081A44019B89
:102218005B68B2FBF3F39AB2019B1B68DA6041E09A
:10222800FFF782FC0246019B5B685B081A44019B2E
:102238005B68B2FBF3F39AB2019B1B68DA6031E08A
:10224800019B5B685B0803F5740303F51053019A5F
:102258005268B3FBF2F39AB2019B1B68DA6021E083
:10226800FEF714FC0246019B5B685B081A44019B5D
:102278005B68B2FBF3F39AB2019B1B68DA6011E06A
:10228800019B5B685B0803F50042019B5B68B2FB3E
:10229800F3F39AB2019B1B68DA6003E001238DF81F
:1022A800133000BF9DF81330184607B05DF804FBE3
:1022B80000B587B0039000230593039B0022DA66DC
:1022C800FEF7DAFB0590039B1B681B6803F0080305
:1022D800082B0ED16FF07E430093059B00224FF42C
:1022E8000011039800F072F80346002B01D0032375
:1022F80022E0039B1B681B6803F00403042B0ED128
:102308006FF07E430093059B00224FF480010398F1
:1023180000F05CF80346002B01D003230CE0039B7C
:10232800202283F86920039B202283F86A20039BDC
:10233800002283F868200023184607B05DF804FBE4
:1023480000B583B00190019B002B01D1012339E036
:10235800019B93F86930DBB2002B03D1019B00226B
:1023680083F86820019B242283F86920019B1B685D
:102378001A68019B1B6822F001021A600198FFF796
:1023880069FD0346012B01D101231BE0019B1B685A
:102398005A68019B1B6822F490425A60019B1B6893
:1023A8009A68019B1B6822F02A029A60019B1B68AD
:1023B8001A68019B1B6842F001021A600198FFF736
:1023C80077FF0346184603B05DF804FB00B585B0F7
:1023D80003900291009313468DF807302CE0069B7A
:1023E800B3F1FF3F28D0069B002B07D0FEF744FB34
:1023F8000246009BD31A069A9A421DD2039B1B6879
:102408001A68039B1B6822F4D0721A60039B1B682E
:102418009A68039B1B6822F001029A60039B2022A2
:1024280083F86920039B202283F86A20039B0022FB
:1024380083F86820032310E0039B1B68DA69029B7A
:102448001340029A9A420CBF01230023DBB21A46BA
:102458009DF807309A42C2D00023184605B05DF8AF
:1024680004FB00B589B00590049102931346ADF8BA
:102478000E3000230793059B93F86930DBB2202BBD
:1024880079D1049B002B03D0BDF80E30002B01D16D
:10249800012371E0059B93F86830012B01D10223D9
:1024A8006AE0059B012283F86820059B0022DA6612
:1024B800059B212283F86920FEF7DEFA0790059B29
:1024C800BDF80E20A3F85020059BBDF80E20A3F8F8
:1024D800522033E0059BB3F852309BB2013B9AB2CD
:1024E800059BA3F85220029B0093079B00228021A2
:1024F8000598FFF76BFF0346002B01D003233BE051
:10250800059B9B68B3F5805F11D1059B1B69002B68
:102518000DD1049B0693069B1A88059B1B68C2F382
:10252800080292B21A85049B0233049306E0049BC6
:102538005A1C04921A78059B1B681A85059BB3F8E8
:1025480052309BB2002BC5D1029B0093079B0022FF
:1025580040210598FFF73AFF0346002B01D00323DB
:102568000AE0059B202283F86920059B002283F856
:102578006820002300E00223184609B05DF804FB38
:1025880000B58BB00590049102931346ADF80E3058
:1025980000230993059B93F86A30DBB2202B40F0A7
:1025A800A580049B002B03D0BDF80E30002B01D171
:1025B80001239CE0059B93F86830012B01D102238D
:1025C80095E0059B012283F86820059B1B684FF066
:1025D800FF321A62059B0022DA66059B222283F8E5
:1025E8006A20FEF749FA0990059BBDF80E20A3F86A
:1025F8005820059BBDF80E20A3F85A20059B9B6820
:10260800B3F5805F0ED1059B1B69002B05D1059B97
:1026180040F2FF12A3F85C2015E0059BFF22A3F807
:102628005C2010E0059B9B68002B0CD1059B1B6967
:10263800002B04D1059BFF22A3F85C2003E0059B37
:102648007F22A3F85C20059BB3F85C30ADF82230FC
:102658003CE0059BB3F85A309BB2013B9AB2059B0C
:10266800A3F85A20029B0093099B00222021059879
:10267800FFF7ACFE0346002B01D0032337E0059B90
:102688009B68B3F5805F13D1059B1B69002B0FD1A5
:10269800049B0793059B1B689B8C9AB2BDF822305C
:1026A80013409AB2079B1A80049B023304930DE0EF
:1026B800059B1B689B8C9BB2D9B2BDF82230DAB25D
:1026C800049B581C04900A40D2B21A70059BB3F8B8
:1026D8005A309BB2002BBCD1059B202283F86A207C
:1026E800059B002283F86820002300E00223184697
:1026F8000BB05DF804FB0000002103E00B4B5B58B6
:10270800435004310A480B4B42189A42F6D30A4AFE
:1027180002E0002313600432084B9A42F9D3AFF366
:10272800008000F00FF8FDF7A1FDFEE7B4270008D0
:1027380000000020000000200000002018020020F7
:10274800FEE7000070B50D4B0D4D5B1B9C1000267D
:10275800A64209D100F01AF80A4D0B4B5B1B9C10DE
:102768000026A64205D170BD55F8043B98470136AE
:10277800EEE755F8043B98470136F2E7AC27000826
:10278800AC270008AC270008B0270008F8B500BF40
:10279800F8BC08BC9E467047F8B500BFF8BC08BC3A
:0427A8009E46704792
:0427AC00AD01000873
:0427B0008901000893
:0400000508002701C7
:00000001FF
